{
  "_format": "hh-sol-artifact-1",
  "contractName": "Pool",
  "sourceName": "contracts/Pool.sol",
  "abi": [
    {
      "anonymous": false,
      "inputs": [
        {
          "indexed": true,
          "internalType": "address",
          "name": "user",
          "type": "address"
        },
        {
          "indexed": false,
          "internalType": "uint256",
          "name": "amount",
          "type": "uint256"
        },
        {
          "indexed": false,
          "internalType": "uint256",
          "name": "time",
          "type": "uint256"
        }
      ],
      "name": "Deposit",
      "type": "event"
    },
    {
      "anonymous": false,
      "inputs": [
        {
          "indexed": false,
          "internalType": "uint256",
          "name": "amount",
          "type": "uint256"
        },
        {
          "indexed": false,
          "internalType": "uint256",
          "name": "time",
          "type": "uint256"
        }
      ],
      "name": "Reward",
      "type": "event"
    },
    {
      "anonymous": false,
      "inputs": [
        {
          "indexed": true,
          "internalType": "address",
          "name": "user",
          "type": "address"
        },
        {
          "indexed": false,
          "internalType": "uint256",
          "name": "amount",
          "type": "uint256"
        },
        {
          "indexed": false,
          "internalType": "uint256",
          "name": "profits",
          "type": "uint256"
        }
      ],
      "name": "Withdraw",
      "type": "event"
    },
    {
      "inputs": [
        {
          "internalType": "address",
          "name": "",
          "type": "address"
        }
      ],
      "name": "balanceOf",
      "outputs": [
        {
          "internalType": "uint256",
          "name": "",
          "type": "uint256"
        }
      ],
      "stateMutability": "view",
      "type": "function"
    },
    {
      "inputs": [],
      "name": "deposit",
      "outputs": [],
      "stateMutability": "payable",
      "type": "function"
    },
    {
      "inputs": [],
      "name": "depositHistory",
      "outputs": [
        {
          "components": [
            {
              "internalType": "address",
              "name": "user",
              "type": "address"
            },
            {
              "internalType": "uint256",
              "name": "amount",
              "type": "uint256"
            },
            {
              "internalType": "uint256",
              "name": "time",
              "type": "uint256"
            },
            {
              "internalType": "bool",
              "name": "getReward",
              "type": "bool"
            }
          ],
          "internalType": "struct Pool.DepositData[]",
          "name": "",
          "type": "tuple[]"
        }
      ],
      "stateMutability": "view",
      "type": "function"
    },
    {
      "inputs": [],
      "name": "getRewardData",
      "outputs": [
        {
          "internalType": "uint256",
          "name": "time",
          "type": "uint256"
        },
        {
          "internalType": "uint256",
          "name": "amount",
          "type": "uint256"
        }
      ],
      "stateMutability": "view",
      "type": "function"
    },
    {
      "inputs": [],
      "name": "initialize",
      "outputs": [],
      "stateMutability": "nonpayable",
      "type": "function"
    },
    {
      "inputs": [],
      "name": "name",
      "outputs": [
        {
          "internalType": "string",
          "name": "",
          "type": "string"
        }
      ],
      "stateMutability": "view",
      "type": "function"
    },
    {
      "inputs": [],
      "name": "reward",
      "outputs": [],
      "stateMutability": "payable",
      "type": "function"
    },
    {
      "inputs": [],
      "name": "toggleStopped",
      "outputs": [],
      "stateMutability": "nonpayable",
      "type": "function"
    },
    {
      "inputs": [],
      "name": "version",
      "outputs": [
        {
          "internalType": "string",
          "name": "",
          "type": "string"
        }
      ],
      "stateMutability": "pure",
      "type": "function"
    },
    {
      "inputs": [],
      "name": "withdraw",
      "outputs": [],
      "stateMutability": "nonpayable",
      "type": "function"
    }
  ],
  "bytecode": "0x608060405234801561001057600080fd5b50610bb7806100206000396000f3fe6080604052600436106100915760003560e01c806370a082311161005957806370a08231146101565780638129fc1c14610191578063967ea517146101a6578063d0e30db0146101c8578063f3c6c9f2146101d057600080fd5b806306fdde0314610096578063228cb733146100df5780633ccfd60b146100e957806354fd4d50146100fe578063668845d81461012c575b600080fd5b3480156100a257600080fd5b506100c960405180604001604052806007815260200166115512141bdbdb60ca1b81525081565b6040516100d69190610a62565b60405180910390f35b6100e76101e5565b005b3480156100f557600080fd5b506100e76102c1565b34801561010a57600080fd5b506040805180820190915260058152640312e302e360dc1b60208201526100c9565b34801561013857600080fd5b50610141610535565b604080519283526020830191909152016100d6565b34801561016257600080fd5b506101836101713660046109c3565b60056020526000908152604090205481565b6040519081526020016100d6565b34801561019d57600080fd5b506100e761056e565b3480156101b257600080fd5b506101bb610698565b6040516100d691906109f3565b6100e7610752565b3480156101dc57600080fd5b506100e7610954565b60005464010000000090046001600160a01b031633146102385760405162461bcd60e51b81526020600482015260096024820152683737ba1037bbb732b960b91b60448201526064015b60405180910390fd5b600034116102755760405162461bcd60e51b815260206004820152600a602482015269063616e277420626520360b41b604482015260640161022f565b4260018190553460028190556040517f45cad8c10023de80f4c0672ff6c283b671e11aa93c92b9380cdf060d2790da52926102b7928252602082015260400190565b60405180910390a1565b6000546301000000900460ff16156102eb5760405162461bcd60e51b815260040161022f90610ab7565b60005464010000000090046001600160a01b03163314156103395760405162461bcd60e51b81526020600482015260086024820152673737ba103ab9b2b960c11b604482015260640161022f565b6004546040805160808101825260008082526020820181905291810182905260608101829052819060005b84811015610459576004818154811061037f5761037f610b6b565b600091825260209182902060408051608081018252600490930290910180546001600160a01b03168084526001820154948401949094526002810154918301919091526003015460ff16151560608201529250331415806103e1575081606001515b156103eb57610447565b600154826040015111156103fe57610459565b602082015161040d9085610ae1565b935060016004828154811061042457610424610b6b565b60009182526020909120600490910201600301805460ff19169115159190911790555b8061045181610b3a565b915050610364565b506000831161049e5760405162461bcd60e51b81526020600482015260116024820152701b9bdd1a1a5b99c819195c1bdcda5d1959607a1b604482015260640161022f565b600354836002546104af9190610b1b565b6104b99190610af9565b6104c39084610ae1565b604051909250339083156108fc029084906000818181858888f193505050501580156104f3573d6000803e3d6000fd5b50604080518481526020810184905233917ff279e6a1f5e320cca91135676d9cb6e44ca8a08c0b88342bcdb1144f6511b568910160405180910390a250505050565b6000805481906301000000900460ff16156105625760405162461bcd60e51b815260040161022f90610ab7565b50506001546002549091565b600054610100900460ff166105895760005460ff161561058d565b303b155b6105f05760405162461bcd60e51b815260206004820152602e60248201527f496e697469616c697a61626c653a20636f6e747261637420697320616c72656160448201526d191e481a5b9a5d1a585b1a5e995960921b606482015260840161022f565b600054610100900460ff16158015610612576000805461ffff19166101011790555b60005462010000900460ff16156106615760405162461bcd60e51b8152602060048201526013602482015272185b1c9958591e481a5b9a5d1a585b1a5e9959606a1b604482015260640161022f565b60008054640100000000330262010000600160c01b031990911617620100001790558015610695576000805461ff00191690555b50565b6000546060906301000000900460ff16156106c55760405162461bcd60e51b815260040161022f90610ab7565b6004805480602002602001604051908101604052809291908181526020016000905b82821015610749576000848152602090819020604080516080810182526004860290920180546001600160a01b03168352600180820154848601526002820154928401929092526003015460ff161515606083015290835290920191016106e7565b50505050905090565b6000546301000000900460ff161561077c5760405162461bcd60e51b815260040161022f90610ab7565b60005464010000000090046001600160a01b03163314156107ca5760405162461bcd60e51b81526020600482015260086024820152673737ba103ab9b2b960c11b604482015260640161022f565b600034116108075760405162461bcd60e51b815260206004820152600a602482015269063616e277420626520360b41b604482015260640161022f565b34600360008282546108199190610ae1565b9091555050604080516080810182523380825234602080840182815242858701818152600060608801818152600480546001810182559281905298517f8a35acfbc15ff81a39ae7d344fd709f28e8600b4aa8c65c6b64bfe7fe36bd19b9290990291820180546001600160a01b0319166001600160a01b03909a169990991790985592517f8a35acfbc15ff81a39ae7d344fd709f28e8600b4aa8c65c6b64bfe7fe36bd19c840155517f8a35acfbc15ff81a39ae7d344fd709f28e8600b4aa8c65c6b64bfe7fe36bd19d83015594517f8a35acfbc15ff81a39ae7d344fd709f28e8600b4aa8c65c6b64bfe7fe36bd19e909101805460ff19169115159190911790558451918252810192909252917f90890809c654f11d6e72a28fa60149770a0d11ec6c92319d6ceb2bb0a4ea1a15910160405180910390a2565b60005464010000000090046001600160a01b031633146109a25760405162461bcd60e51b81526020600482015260096024820152683737ba1037bbb732b960b91b604482015260640161022f565b6000805463ff00000019811663010000009182900460ff1615909102179055565b6000602082840312156109d557600080fd5b81356001600160a01b03811681146109ec57600080fd5b9392505050565b602080825282518282018190526000919060409081850190868401855b82811015610a5557815180516001600160a01b031685528681015187860152858101518686015260609081015115159085015260809093019290850190600101610a10565b5091979650505050505050565b600060208083528351808285015260005b81811015610a8f57858101830151858201604001528201610a73565b81811115610aa1576000604083870101525b50601f01601f1916929092016040019392505050565b60208082526010908201526f1cdd1bdc1c19590818dbdb9d1c9858dd60821b604082015260600190565b60008219821115610af457610af4610b55565b500190565b600082610b1657634e487b7160e01b600052601260045260246000fd5b500490565b6000816000190483118215151615610b3557610b35610b55565b500290565b6000600019821415610b4e57610b4e610b55565b5060010190565b634e487b7160e01b600052601160045260246000fd5b634e487b7160e01b600052603260045260246000fdfea264697066735822122044b7e5e9a77aa484a5d50db64e7b81c70b75955174820b02520aa6ce0440937a64736f6c63430008070033",
  "linkReferences": {},
  "deployedLinkReferences": {}
}